:020000040800F2
:1000000000000120D9430008614100086341000855
:1000100065410008674100086941000800000000D0
:100020000000000000000000000000006B4100081C
:100030006D410008000000006F4100087141000898
:1000400029440008294400082944000829440008DC
:1000500029440008294400082944000829440008CC
:1000600029440008294400082944000829440008BC
:1000700029440008294400082944000829440008AC
:100080002944000829440008294400080000000011
:1000900000000000000000000000000029440008EB
:1000A00029440008794100082944000889410008D2
:1000B000294400082944000829440008294400086C
:1000C000294400082944000829440008294400085C
:1000D00029440008294400082944000800000000C1
:1000E00029440008294400082944000800000000B1
:1000F000000000000000000000000000294400088B
:100100000000000029440008294400082944000890
:1001100000000000000000000000000000000000DF
:1001200029440008294400082944000829440008FB
:10013000294400080000000000000000000000004A
:10014000000000000000000000000000294400083A
:1001500029440008294400082944000829440008CB
:1001600029440008294400080000000000000000A5
:10017000000000000000000000000000000000007F
:1001800000000000294400080000000000000000FA
:0401900029440008F6
:1001A00081F0004102E000BF83F0004330B54FEA28
:1001B00041044FEA430594EA050F08BF90EA020F95
:1001C0001FBF54EA000C55EA020C7FEA645C7FEA28
:1001D000655C00F0E2804FEA5454D4EB5555B8BF4B
:1001E0006D420CDD2C4480EA020281EA030382EABC
:1001F000000083EA010180EA020281EA0303362D4E
:1002000088BF30BD11F0004F4FEA01314FF4801C20
:100210004CEA113102D0404261EB410113F0004F32
:100220004FEA03334CEA133302D0524263EB4303E9
:1002300094EA050F00F0A780A4F10104D5F1200E87
:100240000DDB02FA0EFC22FA05F2801841F10001E2
:1002500003FA0EF2801843FA05F359410EE0A5F1B6
:1002600020050EF1200E012A03FA0EFC28BF4CF0E7
:10027000020C43FA05F3C01851EBE37101F000459D
:1002800007D54FF0000EDCF1000C7EEB00006EEBAA
:100290000101B1F5801F1BD3B1F5001F0CD3490834
:1002A0005FEA30004FEA3C0C04F101044FEA44528B
:1002B00012F5800F80F09A80BCF1004F08BF5FEA12
:1002C000500C50F1000041EB045141EA050130BDF2
:1002D0005FEA4C0C404141EB0101013C28BFB1F504
:1002E000801FE9D291F0000F04BF01460020B1FA4F
:1002F00081F308BF2033A3F10B03B3F120020CDA22
:100300000C3208DD02F1140CC2F10C0201FA0CF0FF
:1003100021FA02F10CE002F11402D8BFC2F1200C64
:1003200001FA02F120FA0CFCDCBF41EA0C0190401A
:10033000E41AA2BF01EB0451294330BD6FEA040463
:100340001F3C1CDA0C340EDC04F11404C4F120024E
:1003500020FA04F001FA02F340EA030021FA04F360
:1003600045EA030130BDC4F10C04C4F1200220FAB7
:1003700002F001FA04F340EA0300294630BD21FAF5
:1003800004F0294630BD94F0000F83F4801306BFBB
:1003900081F480110134013D4EE77FEA645C18BFAF
:1003A0007FEA655C29D094EA050F08BF90EA020F46
:1003B00005D054EA000C04BF1946104630BD91EA3E
:1003C000030F1EBF0021002030BD5FEA545C05D141
:1003D0004000494128BF41F0004130BD14F5800480
:1003E0003CBF01F5801130BD01F0004545F0FE41F4
:1003F00041F470014FF0000030BD7FEA645C1ABF29
:10040000194610467FEA655C1CBF0B46024650EA5F
:10041000013406BF52EA033591EA030F41F400218B
:1004200030BD00BF90F0000F04BF0021704730B511
:100430004FF4806404F132044FF000054FF00001E6
:1004400050E700BF90F0000F04BF0021704730B5A7
:100450004FF4806404F1320410F0004548BF40427C
:100460004FF000013EE700BF42004FEAE2014FEAD1
:1004700031014FEA02701FBF12F07F4393F07F4FAC
:1004800081F06051704732F07F4208BF704793F0AF
:100490007F4F04BF41F40021704730B54FF46074C2
:1004A00001F0004521F000411CE700BF50EA0102C5
:1004B00008BF704730B54FF000050AE050EA01026E
:1004C00008BF704730B511F0004502D5404261EBDE
:1004D00041014FF4806404F132045FEA915C3FF41F
:1004E000D8AE4FF003025FEADC0C18BF03325FEABC
:1004F000DC0C18BF033202EBDC02C2F1200300FA6D
:1005000003FC20FA02F001FA03FE40EA0E0021FA91
:1005100002F11444BDE600BF53B94AB9002908BF2F
:1005200000281CBF4FF0FF314FF0FF3000F00CB837
:10053000ADF1080C6DE904CE04F0C8F8DDF804E074
:10054000DDE9022304B07047704700BF00000000DF
:1005500001F0FF01102A2BDB10F0070F08D010F874
:10056000013B013A8B422DD010F0070F42B3F6D178
:10057000F0B441EA012141EA014122F007047FF091
:1005800000070023F0E80256083C85EA010586EAE8
:10059000010685FA47F5A3FA87F586FA47F6A5FA24
:1005A00087F68EB9EED1F0BC01F0FF0102F0070230
:1005B00032B110F8013B013A83EA010313B1F8D1DB
:1005C0000020704701387047002D06BF35460338BC
:1005D000073815F0010F07D1013015F4807F02BFF5
:1005E000013015F4C03F0130F0BC0138704700BF46
:1005F000034613F8012B002AFBD1181A0138704763
:1006000070B54FF0FF0C4CF4E06C1CEA11541DBFA8
:100610001CEA135594EA0C0F95EA0C0F00F0DEF873
:100620002C4481EA030621EA4C5123EA4C5350EA58
:10063000013518BF52EA033541F4801143F48013A9
:1006400038D0A0FB02CE4FF00005E1FB02E506F03A
:100650000042E0FB03E54FF00006E1FB03569CF08F
:10066000000F18BF4EF0010EA4F1FF04B6F5007F95
:1006700064F5407404D25FEA4E0E6D4146EB060607
:1006800042EAC62141EA55514FEAC52040EA5E5090
:100690004FEACE2EB4F1FD0C88BFBCF5E06F1ED83A
:1006A000BEF1004F08BF5FEA500E50F1000041EB71
:1006B000045170BD06F0004646EA010140EA02001E
:1006C00081EA0301B4EB5C04C2BFD4EB0C0541EA40
:1006D000045170BD41F480114FF0000E013C00F355
:1006E000AB8014F1360FDEBF002001F0004170BD79
:1006F000C4F10004203C35DA0C341BDC04F1140492
:10070000C4F1200500FA05F320FA04F001FA05F21D
:1007100040EA020001F0004221F0004110EBD370EA
:1007200021FA04F642EB06015EEA430E08BF20EA16
:10073000D37070BDC4F10C04C4F1200500FA04F3B9
:1007400020FA05F001FA04F240EA020001F000414B
:1007500010EBD37041F100015EEA430E08BF20EABE
:10076000D37070BDC4F1200500FA05F24EEA020E06
:1007700020FA04F301FA05F243EA020321FA04F035
:1007800001F0004121FA04F220EA020000EBD370EC
:100790005EEA430E08BF20EAD37070BD94F0000FEC
:1007A0000FD101F00046400041EB010111F4801F20
:1007B00008BF013CF7D041EA060195F0000F18BFD1
:1007C000704703F00046520043EB030313F4801F0D
:1007D00008BF013DF7D043EA0603704794EA0C0FC7
:1007E0000CEA135518BF95EA0C0F0CD050EA4106DD
:1007F00018BF52EA4306D1D181EA030101F000415A
:100800004FF0000070BD50EA410606BF1046194681
:1008100052EA430619D094EA0C0F02D150EA01368D
:1008200013D195EA0C0F05D152EA03361CBF1046CE
:1008300019460AD181EA030101F0004141F0FE416D
:1008400041F470014FF0000070BD41F0FE4141F4F1
:10085000780170BD70B54FF0FF0C4CF4E06C1CEAF1
:1008600011541DBF1CEA135594EA0C0F95EA0C0FA6
:1008700000F0A7F8A4EB050481EA030E52EA033561
:100880004FEA013100F088804FEA03334FF0805582
:1008900045EA131343EA12634FEA022245EA1115AF
:1008A00045EA10654FEA00260EF000419D4208BF60
:1008B000964244F1FD0404F5407402D25B084FEA0D
:1008C0003202B61A65EB03055B084FEA32024FF4B9
:1008D00080104FF4002CB6EB020E75EB030E22BF16
:1008E000B61A754640EA0C005B084FEA3202B6EBD6
:1008F000020E75EB030E22BFB61A754640EA5C0085
:100900005B084FEA3202B6EB020E75EB030E22BF14
:10091000B61A754640EA9C005B084FEA3202B6EB15
:10092000020E75EB030E22BFB61A754640EADC00D4
:1009300055EA060E18D04FEA051545EA16754FEA36
:1009400006164FEAC30343EA52734FEAC2025FEA54
:100950001C1CC0D111F4801F0BD141EA00014FF0E3
:1009600000004FF0004CB6E711F4801F04BF0143B4
:100970000020B4F1FD0C88BFBCF5E06F3FF6AFAED0
:10098000B5EB030C04BFB6EB020C5FEA500C50F160
:10099000000041EB045170BD0EF0004E4EEA1131E3
:1009A00014EB5C04C2BFD4EB0C0541EA045170BDEA
:1009B00041F480114FF0000E013C90E645EA060E2E
:1009C0008DE60CEA135594EA0C0F08BF95EA0C0F5C
:1009D0003FF43BAF94EA0C0F0AD150EA01347FF4A4
:1009E00034AF95EA0C0F7FF425AF104619462CE77B
:1009F00095EA0C0F06D152EA03353FF4FDAE1046DE
:100A0000194622E750EA410618BF52EA43067FF42E
:100A1000C5AE50EA41047FF40DAF52EA43057FF4BE
:100A2000EBAE12E74FF0FF3C06E000BF4FF0010CC9
:100A300002E000BF4FF0010C4DF804CD4FEA410C2D
:100A40007FEA6C5C4FEA430C18BF7FEA6C5C1BD0FA
:100A500001B050EA410C0CBF52EA430C91EA030F7B
:100A600002BF90EA020F0020704710F1000F91EAD8
:100A7000030F58BF994208BF90422CBFD8176FEAA6
:100A8000E37040F0010070474FEA410C7FEA6C5C74
:100A900002D150EA013C07D14FEA430C7FEA6C5C7B
:100AA000D6D152EA033CD3D05DF8040B704700BFA7
:100AB0008446104662468C461946634600E000BFF5
:100AC00001B5FFF7B7FF002848BF10F1000F01BDC7
:100AD0004DF808EDFFF7F4FF0CBF012000205DF892
:100AE00008FB00BF4DF808EDFFF7EAFF34BF012017
:100AF00000205DF808FB00BF4DF808EDFFF7E0FFB0
:100B000094BF012000205DF808FB00BF4DF808ED00
:100B1000FFF7CEFF94BF012000205DF808FB00BF67
:100B20004DF808EDFFF7C4FF34BF012000205DF849
:100B300008FB00BF4FEA410C7FEA6C5C02D150EA2F
:100B4000013C0AD14FEA430C7FEA6C5C02D152EAC5
:100B5000033C02D14FF0000070474FF00100704796
:100B60004FEA410212F5001215D211D56FF47873D5
:100B7000B3EB625212D94FEAC12343F0004343EA78
:100B8000505311F0004F23FA02F018BF4042704753
:100B90004FF00000704750EA013005D111F00040DD
:100BA00008BF6FF0004070474FF00000704700BF73
:100BB0000348044B834202D0034B03B118477047EC
:100BC000D4010020D4010020000000000548064B9D
:100BD0001B1AD90F01EBA301491002D0034B03B13B
:100BE00018477047D4010020D40100200000000005
:100BF00010B5064C237843B9FFF7DAFF044B13B165
:100C00000448AFF300800123237010BDD4010020FD
:100C1000000000009476000808B5054B1BB105499B
:100C20000548AFF30080BDE80840FFF7CFBF00BF25
:100C300000000000D80100209476000880B400AFC6
:100C4000064BD3F88830054A43F47003C2F8883065
:100C500000BFBD465DF8047B704700BF00ED00E0BB
:100C600080B584B000AF78600023FB737B68002BF5
:100C700001D1012333E07B681B6C002B09D178681C
:100C800003F0A6FA7B6800225A647B68002283F88E
:100C90003C207B681B6C03F01003002B18D17B6891
:100CA0001B6C23F4885323F0020343F002027B6899
:100CB0001A64786800F0BAFA7B6800225A647B688C
:100CC0001B6C23F0030343F001027B681A6401E00C
:100CD0000123FB737B68002283F83C20FB7B1846D2
:100CE0001037BD4680BD000080B485B000AF78608D
:100CF0000023BB607B6893F83C30012B01D10223B9
:100D000097E07B68012283F83C207B681B689B6826
:100D100003F00103012B18D07B681B689A687B687D
:100D20001B6842F001029A60454B1B68454AA2FBD2
:100D300003239A0C13465B001344BB6002E0BB68BC
:100D4000013BBB60BB68002BF9D17B681B689B68CB
:100D500003F00103012B5FD17B681B6C23F4E0637C
:100D600023F0010343F480727B681A647B681B687C
:100D70005B6803F48063002B07D07B681B6C23F453
:100D8000405343F480527B681A647B681B6C03F405
:100D90008053B3F5805F06D17B685B6C23F006025D
:100DA0007B685A6402E07B6800225A647B680022F8
:100DB00083F83C20244BFB607B681B686FF02202A9
:100DC0001A60FB685B6803F01F03002B0FD17B6880
:100DD0001B689B6803F04053002B29D17B681B687C
:100DE0009A687B681B6842F080429A6020E07B68CA
:100DF0001B68164A93421BD17B681B689B6803F0F3
:100E00004053002B14D17B681B689A687B681B6871
:100E100042F080429A600BE07B681B6C43F010024A
:100E20007B681A647B685B6C43F001027B685A64E0
:100E3000002318461437BD465DF8047B704700BF99
:100E40000000002083DE1B430023014000200140FE
:100E500080B483B000AF78607B6893F83C30012B9E
:100E600001D1022321E07B68012283F83C207B68CA
:100E70001B689A687B681B6822F001029A607B6895
:100E80001B689B6803F00103002B09D17B681B6C76
:100E900023F4885323F0010343F001027B681A64B2
:100EA0007B68002283F83C20002318460C37BD469F
:100EB0005DF8047B704780B584B000AF786039601E
:100EC0000023FB607B681B689B6803F48063B3F5B9
:100ED000806F13D17B681B689B6803F48073B3F544
:100EE000807F0BD17B681B6C43F020027B681A6407
:100EF0007B68002283F83C20012363E001F0FEF9C7
:100F0000F86021E03B68B3F1FF3F1DD03B68002B48
:100F100007D001F0F3F90246FB68D31A3A689A4207
:100F200012D27B681B681B6803F00203022B0BD0F4
:100F30007B681B6C43F004027B681A647B680022A8
:100F400083F83C2003233DE07B681B681B6803F0AB
:100F50000203022BD6D17B681B686FF012021A6065
:100F60007B681B6C43F400727B681A647B681B68A7
:100F70009B6803F04053002B23D17B681B7E002B22
:100F80001FD17B681B68DB6A03F47003002B06D05B
:100F90007B681B689B6803F48063002B11D17B681E
:100FA0001B6C23F480727B681A647B681B6C03F4EF
:100FB0008053002B05D17B681B6C43F001027B68DA
:100FC0001A64002318461037BD4680BD80B483B034
:100FD00000AF78607B681B68DB6C18460C37BD4639
:100FE0005DF8047B7047000080B485B000AF786086
:100FF00039600023BB607B6893F83C30012B01D142
:10100000022305E17B68012283F83C203B681B68D2
:10101000092B25D97B681B68D9683B681B689BB284
:101020001A4613465B0013441E3B072202FA03F3E1
:10103000DA437B681B680A40DA607B681B68D96802
:101040003B689A683B681B689BB2184603465B0086
:1010500003441E3B9A407B681B680A43DA6022E027
:101060007B681B6819693B681B689BB21A4613466C
:101070005B001344072202FA03F3DA437B681B6820
:101080000A401A617B681B6819693B689A683B686B
:101090001B689BB2184603465B0003449A407B687A
:1010A0001B680A431A613B685B68062B24D87B687F
:1010B0001B68596B3B685A6813469B001344053BF9
:1010C0001F2202FA03F3DA437B681B680A405A6363
:1010D0007B681B68596B3B681B689BB218463B6872
:1010E0005A6813469B001344053B00FA03F27B68E1
:1010F0001B680A435A634CE03B685B680C2B24D89E
:101100007B681B68196B3B685A6813469B00134445
:10111000233B1F2202FA03F3DA437B681B680A4071
:101120001A637B681B68196B3B681B689BB2184687
:101130003B685A6813469B001344233B00FA03F2B2
:101140007B681B680A431A6323E07B681B68D96AC3
:101150003B685A6813469B001344413B1F2202FA26
:1011600003F3DA437B681B680A40DA627B681B681A
:10117000D96A3B681B689BB218463B685A6813469D
:101180009B001344413B00FA03F27B681B680A434F
:10119000DA62224BFB607B681B68214A934209D1CB
:1011A0003B681B68122B05D1FB685B6843F4800227
:1011B000FB685A607B681B68194A934223D13B68DD
:1011C0001B68102B03D03B681B68112B1BD1FB68DD
:1011D0005B6843F40002FB685A603B681B68102B95
:1011E00011D1104B1B68104AA2FB03239A0C134623
:1011F0009B0013445B00BB6002E0BB68013BBB602B
:10120000BB68002BF9D17B68002283F83C200023C7
:1012100018461437BD465DF8047B70470023014033
:10122000002001400000002083DE1B4380B485B015
:1012300000AF7860794BFB60FB685B6823F4403259
:10124000FB685A60FB685A687B685B681A43FB68F6
:101250005A607B681B685A687B681B6822F480723E
:101260005A607B681B6859687B681B691A027B6837
:101270001B680A435A607B681B685A687B681B6856
:1012800022F040725A607B681B6859687B689A68D4
:101290007B681B680A435A607B681B689A687B6896
:1012A0001B6822F400629A607B681B6899687B68FF
:1012B000DA687B681B680A439A607B689B6A584AB5
:1012C000934222D07B681B689A687B681B6822F077
:1012D00070629A607B681B6899687B689A6A7B6811
:1012E0001B680A439A607B681B689A687B681B6866
:1012F00022F040529A607B681B6899687B68DA6AC2
:101300007B681B680A439A600FE07B681B689A68D9
:101310007B681B6822F070629A607B681B689A6821
:101320007B681B6822F040529A607B681B689A6851
:101330007B681B6822F002029A607B681B689968D0
:101340007B681B7E5A007B681B680A439A607B6837
:1013500093F82030002B1BD07B681B685A687B6891
:101360001B6842F400625A607B681B685A687B689D
:101370001B6822F460425A607B681B6859687B686E
:101380005B6A013B5A037B681B680A435A6007E0AB
:101390007B681B685A687B681B6822F400625A608D
:1013A0007B681B68DA6A7B681B6822F47002DA6269
:1013B0007B681B68D96A7B68DB69013B1A057B681F
:1013C0001B680A43DA627B681B689A687B681B6843
:1013D00022F400729A607B681B6899687B6893F8B6
:1013E00030305A027B681B680A439A607B681B682E
:1013F0009A687B681B6822F480629A607B681B682D
:1014000099687B685B699A027B681B680A439A60EB
:1014100000BF1437BD465DF8047B704700230140D0
:101420000100000F80B586B000AF78607B68002BAC
:1014300001D1012367E27B681B6803F00103002BE5
:1014400075D0884B9B6803F00C03042B0CD0854BA4
:101450009B6803F00C03082B12D1824B5B6803F4EA
:101460008003B3F5800F0BD17E4B1B6803F4003370
:10147000002B5BD07B685B68002B57D1012342E2D5
:101480007B685B68B3F5803F06D1764B1B68754A75
:1014900043F4803313601DE07B685B68B3F5A02FD5
:1014A0000CD1704B1B686F4A43F4802313606D4B63
:1014B0001B686C4A43F4803313600BE0694B1B6874
:1014C000684A23F480331360664B1B68654A23F433
:1014D000802313607B685B68002B13D000F00EFF45
:1014E000386108E000F00AFF02463B69D31A642B1A
:1014F00001D9032307E25B4B1B6803F40033002B85
:10150000F0D014E000F0FAFE386108E000F0F6FEDA
:1015100002463B69D31A642B01D90323F3E1514BF3
:101520001B6803F40033002BF0D100E000BF7B68A0
:101530001B6803F00203002B63D04A4B9B6803F047
:101540000C03002B0BD0474B9B6803F00C03082BBC
:101550001CD1444B5B6803F48003002B16D1414B34
:101560001B6803F00203002B05D07B68DB68012BAE
:1015700001D00123C7E13B4B1B6823F0F8027B68D5
:101580001B69DB00374913430B603AE07B68DB687B
:10159000002B20D0344B01221A6000F0AFFE3861DE
:1015A00008E000F0ABFE02463B69D31A022B01D9DA
:1015B0000323A8E12B4B1B6803F00203002BF0D0A0
:1015C000284B1B6823F0F8027B681B69DB00254968
:1015D00013430B6015E0244B00221A6000F08EFECE
:1015E000386108E000F08AFE02463B69D31A022BFC
:1015F00001D9032387E11B4B1B6803F00203002B77
:10160000F0D17B681B6803F00803002B36D07B68A1
:101610005B69002B16D0154B01221A6000F06EFE9C
:10162000386108E000F06AFE02463B69D31A022BDB
:1016300001D9032367E10B4B5B6F03F00203002B1F
:10164000F0D01BE0094B00221A6000F057FE386111
:101650000EE000F053FE02463B69D31A022B07D975
:10166000032350E10038024000004742800E474209
:10167000884B5B6F03F00203002BEAD17B681B6889
:1016800003F00403002B00F097800023FB75814BCF
:101690001B6C03F08053002B0FD10023BB607D4BEC
:1016A0001B6C7C4A43F0805313647A4B1B6C03F031
:1016B0008053BB60BB680123FB75774B1B6803F449
:1016C0008073002B18D1744B1B68734A43F48073EA
:1016D000136000F013FE386108E000F00FFE0246D0
:1016E0003B69D31A022B01D903230CE16A4B1B6817
:1016F00003F48073002BF0D07B689B68012B06D12C
:10170000644B1B6F634A43F0010313671CE07B6863
:101710009B68052B0CD15F4B1B6F5E4A43F00403A3
:1017200013675C4B1B6F5B4A43F0010313670BE0CD
:10173000584B1B6F574A23F001031367554B1B6F20
:10174000544A23F0040313677B689B68002B15D071
:1017500000F0D4FD38610AE000F0D0FD02463B699C
:10176000D31A41F28832934201D90323CBE0494B8B
:101770001B6F03F00203002BEED014E000F0BEFD5F
:1017800038610AE000F0BAFD02463B69D31A41F223
:101790008832934201D90323B5E03E4B1B6F03F01F
:1017A0000203002BEED1FB7D012B05D1394B1B6CC5
:1017B000384A23F0805313647B689B69002B00F048
:1017C000A180344B9B6803F00C03082B5CD07B6832
:1017D0009B69022B41D1314B00221A6000F08EFD33
:1017E000386108E000F08AFD02463B69D31A022BFB
:1017F00001D9032387E0274B1B6803F00073002BFC
:10180000F0D17B68DA697B681B6A1A437B685B6A84
:101810009B011A437B689B6A5B08013B1B041A43CC
:101820007B68DB6A1B061B4913434B601B4B012281
:101830001A6000F063FD386108E000F05FFD0246C9
:101840003B69D31A022B01D903235CE0114B1B68BF
:1018500003F00073002BF0D054E0104B00221A600C
:1018600000F04CFD386108E000F048FD02463B699D
:10187000D31A022B01D9032345E0064B1B6803F062
:101880000073002BF0D13DE07B689B69012B07D1F1
:10189000012338E0003802400070004060004742F9
:1018A0001B4B5B68FB607B689B69012B28D0FB6846
:1018B00003F480027B68DB699A4221D1FB6803F064
:1018C0003F027B681B6A9A421AD1FA6847F6C073D6
:1018D00013407A68526A9201934211D1FB6803F473
:1018E00040327B689B6A5B08013B1B049A4207D12C
:1018F000FB6803F070627B68DB6A1B069A4201D0CA
:10190000012300E0002318461837BD4680BD00BF04
:101910000038024080B584B000AF786039607B68E1
:10192000002B01D10123CCE0684B1B6803F00703B7
:101930003A689A420CD9654B3A68D2B21A70634B36
:101940001B6803F007033A689A4201D00123B8E00C
:101950007B681B6803F00203002B20D07B681B68A8
:1019600003F00403002B05D0594B9B68584A43F4FD
:10197000E05393607B681B6803F00803002B05D0DD
:10198000534B9B68524A43F460439360504B9B68AF
:1019900023F0F0027B689B684D4913438B607B68A2
:1019A0001B6803F00103002B44D07B685B68012BAC
:1019B00007D1474B1B6803F40033002B19D10123D7
:1019C0007FE07B685B68022B03D07B685B68032B3E
:1019D00007D13F4B1B6803F00073002B09D1012393
:1019E0006FE03B4B1B6803F00203002B01D1012386
:1019F00067E0374B9B6823F003027B685B683449E0
:101A000013438B6000F07AFCF8600AE000F076FC8B
:101A10000246FB68D31A41F28832934201D903236C
:101A20004FE02B4B9B6803F00C027B685B689B00CC
:101A30009A42EBD1254B1B6803F007033A689A42A0
:101A40000CD2224B3A68D2B21A70204B1B6803F0BA
:101A500007033A689A4201D0012332E07B681B6891
:101A600003F00403002B08D0194B9B6823F4E052C9
:101A70007B68DB68164913438B607B681B6803F047
:101A80000803002B09D0124B9B6823F460427B684B
:101A90001B69DB000E4913438B6000F021F80246FE
:101AA0000B4B9B681B0903F00F030A49CB5C22FA1E
:101AB00003F3094A1360094B1B68184600F0DAFB70
:101AC000002318461037BD4680BD00BF003C0240D1
:101AD00000380240B076000800000020040000201A
:101AE0002DE9B04F90B000AF00237B630023FB6370
:101AF00000233B630023BB63584B9B6803F00C033C
:101B0000082B0DD0082B00F2A080002B02D0042B54
:101B100003D09AE0524BBB639AE0524BBB6397E011
:101B20004E4B5B6803F03F037B634C4B5B6803F4F5
:101B30008003002B27D0494B5B689B0900223B6246
:101B40007A623B6AC3F308000021464B03FB01F2B3
:101B5000002300FB03F31344424AA0FB0221F96275
:101B6000BA62FA6A1344FB627B6B0022BB61FA61C2
:101B7000D7E90623D7E90A01FEF7CEFC02460B4659
:101B80001346FB6353E0354B5B689B0900223B61C6
:101B90007A613B69C3F3080A4FF0000B52465B467B
:101BA0004FF000004FF00001590141EAD2615001AD
:101BB00002460B46B2EB0A0863EB0B094FF000023A
:101BC0004FF000034FEA891343EA98634FEA881203
:101BD000B2EB080463EB09054FF000024FF000037D
:101BE000EB0043EA5473E20014461D4614EB0A036B
:101BF0003B6045EB0B037B604FF000024FF00003AE
:101C0000D7E9004529468B02214643EA91532146F4
:101C10008A02104619467B6B0022BB60FA60D7E946
:101C20000223FEF779FC02460B461346FB630B4B7F
:101C30005B681B0C03F0030301335B003B63FA6B2F
:101C40003B6BB2FBF3F3BB6302E0054BBB6300BF2E
:101C5000BB6B18464037BD46BDE8B08F0038024028
:101C60000024F40040787D0180B400AF034B1B6872
:101C70001846BD465DF8047B704700BF0000002099
:101C800080B500AFFFF7F0FF0246054B9B689B0A4B
:101C900003F007030349CB5C22FA03F3184680BD27
:101CA00000380240C076000880B500AFFFF7DCFFC7
:101CB0000246054B9B685B0B03F007030349CB5CB3
:101CC00022FA03F3184680BD00380240C0760008AF
:101CD00080B489B000AF7860396000237B61002355
:101CE0003B610023BB610023FB6159E10122FB69D9
:101CF00002FA03F37B613B681B687A6913403B611E
:101D00003A697B699A4240F048813B685B6803F01E
:101D10000303012B05D03B685B6803F00303022B30
:101D200030D17B689B68BB61FB695B00032202FAD0
:101D300003F3DB43BA691340BB613B68DA68FB69B4
:101D40005B0002FA03F3BA691343BB617B68BA69AB
:101D50009A607B685B68BB610122FB6902FA03F34E
:101D6000DB43BA691340BB613B685B681B0903F046
:101D70000102FB6902FA03F3BA691343BB617B6892
:101D8000BA695A603B685B6803F00303032B17D002
:101D90007B68DB68BB61FB695B00032202FA03F32B
:101DA000DB43BA691340BB613B689A68FB695B001F
:101DB00002FA03F3BA691343BB617B68BA69DA605C
:101DC0003B685B6803F00303022B23D1FB69DA084D
:101DD0007B68083253F82230BB61FB6903F00703CC
:101DE0009B000F2202FA03F3DB43BA691340BB6185
:101DF0003B681A69FB6903F007039B0002FA03F3CF
:101E0000BA691343BB61FB69DA087B680832B969B8
:101E100043F822107B681B68BB61FB695B000322EF
:101E200002FA03F3DB43BA691340BB613B685B68AA
:101E300003F00302FB695B0002FA03F3BA69134380
:101E4000BB617B68BA691A603B685B6803F4403326
:101E5000002B00F0A2800023FB60574B5B6C564ABE
:101E600043F480435364544B5B6C03F48043FB6046
:101E7000FB68524AFB699B08023352F82330BB616E
:101E8000FB6903F003039B000F2202FA03F3DB4319
:101E9000BA691340BB617B68494A934219D07B6899
:101EA000484A934213D07B68474A93420DD07B68DF
:101EB000464A934207D07B68454A934201D10423A6
:101EC00008E0072306E0032304E0022302E00123E5
:101ED00000E00023FA6902F0030292009340BA691D
:101EE0001343BB613549FB699B080233BA6941F86A
:101EF0002320384B9B68BB613B69DB43BA691340C5
:101F0000BB613B685B6803F48013002B03D0BA69A4
:101F10003B691343BB612F4ABB6993602D4BDB6860
:101F2000BB613B69DB43BA691340BB613B685B68DB
:101F300003F40013002B03D0BA693B691343BB6160
:101F4000244ABB69D360234B5B68BB613B69DB43BD
:101F5000BA691340BB613B685B6803F40033002B34
:101F600003D0BA693B691343BB611A4ABB6953602A
:101F7000184B1B68BB613B69DB43BA691340BB610B
:101F80003B685B6803F48033002B03D0BA693B697C
:101F90001343BB610F4ABB691360FB690133FB61EB
:101FA000FB690F2B7FF6A2AE00BF00BF2437BD46F2
:101FB0005DF8047B704700BF0038024000380140E4
:101FC000000002400004024000080240000C0240F1
:101FD00000100240003C014080B483B000AF786044
:101FE0000B467B8013467B707B78002B03D07A886E
:101FF0007B689A6103E07B881A047B689A6100BF62
:102000000C37BD465DF8047B7047000080B485B096
:1020100000AF78607B6803F00703FB600C4BDB6864
:10202000BB60BA684FF6FF031340BB60FB681A023F
:10203000BB68134343F0BF6343F40033BB60044AFF
:10204000BB68D36000BF1437BD465DF8047B7047A2
:1020500000ED00E080B400AF044BDB681B0A03F026
:1020600007031846BD465DF8047B704700ED00E0AD
:1020700080B483B000AF0346FB7197F90730002BA3
:102080000BDBFB7903F01F02074997F907305B0967
:10209000012000FA02F241F8232000BF0C37BD46B0
:1020A0005DF8047B704700BF00E100E080B483B0BE
:1020B00000AF03463960FB7197F90730002B0ADB4C
:1020C0003B68DAB20C4997F907301201D2B20B44DF
:1020D00083F800230AE03B68DAB20849FB7903F091
:1020E0000F03043B1201D2B20B441A7600BF0C3727
:1020F000BD465DF8047B704700E100E000ED00E0C4
:1021000080B489B000AFF860B9607A60FB6803F012
:102110000703FB61FB69C3F10703042B28BF0423FA
:10212000BB61FB690433062B02D9FB69033B00E06A
:1021300000237B614FF0FF32BB6902FA03F3DA43FD
:10214000BB681A407B699A404FF0FF317B6901FA06
:1021500003F3D9437B680B40134318462437BD462D
:102160005DF8047B7047000080B582B000AF7860F6
:102170007B68013BB3F1807F01D301230FE00A4A62
:102180007B68013B53600F214FF0FF30FFF78EFF5C
:10219000054B00229A60044B07221A600023184660
:1021A0000837BD4680BD00BF10E000E080B582B0BA
:1021B00000AF78607868FFF729FF00BF0837BD4699
:1021C00080BD80B586B000AF0346B9607A60FB730E
:1021D00000237B61FFF73EFF78617A68B968786910
:1021E000FFF78EFF024697F90F3011461846FFF7AA
:1021F0005DFF00BF1837BD4680BD80B582B000AF1F
:102200000346FB7197F907301846FFF731FF00BF0F
:102210000837BD4680BD80B582B000AF7860786871
:10222000FFF7A2FF034618460837BD4680BD0000F1
:1022300080B500AF0E4B1B680D4A43F4007313606A
:102240000B4B1B680A4A43F480631360084B1B68FE
:10225000074A43F4807313600320FFF7A7FF0F20A2
:1022600000F008F801F098FF0023184680BD00BF79
:10227000003C024080B582B000AF7860124B1A6813
:10228000124B1B7819464FF47A73B3FBF1F3B2FB90
:10229000F3F31846FFF7BFFF0346002B01D00123DD
:1022A0000EE07B680F2B0AD8002279684FF0FF30D0
:1022B000FFF787FF064A7B681360002300E00123D5
:1022C00018460837BD4680BD0000002008000020E9
:1022D0000400002080B400AF064B1B781A46064B62
:1022E0001B681344044A136000BFBD465DF8047BBD
:1022F000704700BF08000020F001002080B400AF4C
:10230000034B1B681846BD465DF8047B704700BF51
:10231000F001002080B584B000AF7860FFF7EEFFD9
:10232000B8607B68FB60FB68B3F1FF3F05D00A4BE8
:102330001B781A46FB681344FB6000BFFFF7DEFF03
:102340000246BB68D31AFA689A42F7D800BF00BFAA
:102350001037BD4680BD00BF0800002080B584B0A6
:1023600000AF78607B68002B01D101232BE17B68F3
:1023700093F83D30DBB2002B06D17B68002283F856
:102380003C20786801F058FF7B68242283F83D20C8
:102390007B681B681A687B681B6822F001021A6060
:1023A0007B681B681A687B681B6842F400421A60ED
:1023B0007B681B681A687B681B6822F400421A60FD
:1023C000FFF75EFCF8607B685B68814A934207D840
:1023D000FB68804A934294BF01230023DBB206E0EE
:1023E000FB687D4A934294BF01230023DBB2002B9C
:1023F00001D00123E7E0FB68784AA2FB03239B0C92
:10240000BB607B681B685B6823F03F017B681B68CF
:10241000BA680A435A607B681B681B6A23F03F0155
:102420007B685B686A4A934202D8BB68013309E063
:10243000BB684FF4967202FB03F3694AA2FB0323C5
:102440009B0901337A6812680B4313627B681B682F
:10245000DB6923F44F4222F0FF027B685B685C4932
:102460008B4219D8FB68591E7B685B685B00B1FB27
:10247000F3F3591C40F6FC730B40002B0AD0FB68A9
:10248000591E7B685B685B00B1FBF3F30133C3F358
:102490000B0351E004234FE07B689B68002B11D1B4
:1024A000FB68581E7B6859680B465B000B44B0FB09
:1024B000F3F30133C3F30B03002B0CBF0123002301
:1024C000DBB212E0FB68581E7B6859680B469B0024
:1024D0000B4499000B44B0FBF3F30133C3F30B033C
:1024E000002B0CBF01230023DBB2002B01D0012302
:1024F00022E07B689B68002B0ED1FB68581E7B682E
:1025000059680B465B000B44B0FBF3F30133C3F394
:102510000B0343F400430FE0FB68581E7B685968C7
:102520000B469B000B4499000B44B0FBF3F30133C3
:10253000C3F30B0343F44043796809681343CB6149
:102540007B681B681B6823F0C0017B68DA697B68C5
:102550001B6A1A437B681B680A431A607B681B6806
:102560009B6823F4034323F0FF037A6811697A68B8
:10257000D26811437A6812680B4393607B681B68CA
:10258000DB6823F0FF017B685A697B689B691A430B
:102590007B681B680A43DA607B681B681A687B6883
:1025A0001B6842F001021A607B6800221A647B6893
:1025B000202283F83D207B6800221A637B6800227A
:1025C00083F83E20002318461037BD4680BD00BF6B
:1025D000A08601007F841E00FF083D0083DE1B43B0
:1025E000D34D621080B582B000AF78607B68002B5D
:1025F00001D1012342E07B6893F84130DBB2002B2C
:1026000006D17B68002283F84020786801F04CFEF8
:102610007B68242283F841207B681B68DA687B682A
:102620001B6822F40052DA60786800F073F97B6866
:102630001B681A697B681B6822F490421A617B68E8
:102640001B685A697B681B6822F02A025A617B6802
:102650001B68DA687B681B6842F40052DA607B68AA
:1026600000225A647B68202283F841207B68202264
:1026700083F842207B6800225A63002318460837FB
:10268000BD4680BD80B58AB002AFF860B9603B60DE
:102690001346FB8000237B61FB6893F84130DBB27B
:1026A000202B75D1BB68002B02D0FB88002B01D1F9
:1026B00001236EE0FB6800225A64FB68212283F844
:1026C0004120FFF71BFE7861FB68FA889A84FB685B
:1026D000FA88DA84FB689B68B3F5805F08D1FB68F1
:1026E0001B69002B04D10023FB61BB68BB6103E0C5
:1026F000BB68FB610023BB612EE03B6800937B69F4
:1027000000228021F86800F048F80346002B05D02D
:10271000FB68202283F8412003233AE0FB69002B69
:102720000BD1BB691B881A46FB681B68C2F3080201
:102730005A60BB690233BB6107E0FB691A78FB682A
:102740001B685A60FB690133FB61FB68DB8C9BB241
:10275000013B9AB2FB68DA84FB68DB8C9BB2002BEE
:10276000CBD13B6800937B6900224021F86800F0E0
:1027700014F80346002B05D0FB68202283F8412083
:10278000032306E0FB68202283F84120002300E0B9
:10279000022318462037BD4680BD80B586B000AF05
:1027A000F860B9603B601346FB713BE03B6AB3F1F4
:1027B000FF3F37D0FFF7A2FD02463B68D31A3A6AC3
:1027C0009A4202D33B6A002B01D103233AE0FB6813
:1027D0001B68DB6803F00403002B23D0BB68802B4D
:1027E00020D0BB68402B1DD0FB681B681B6803F022
:1027F0000803082B16D100237B61FB681B681B684C
:102800007B61FB681B685B687B617B69F86800F033
:102810001DF8FB6808225A64FB68002283F84020F8
:1028200001230FE0FB681B681A68BB681340BA6895
:102830009A420CBF01230023DBB21A46FB799A426D
:10284000B4D0002318461837BD4680BD80B495B07B
:1028500000AF78607B681B680C337B637B6B53E84D
:10286000003F3B633B6B23F49073FB647B681B6806
:102870000C33FA6C3A64FB63F96B3A6C41E8002361
:10288000BB63BB6B002BE5D17B681B6814333B62D9
:102890003B6A53E8003FFB61FB6923F00103BB6423
:1028A0007B681B681433BA6CFA62BB62B96AFA6A55
:1028B00041E800237B627B6A002BE5D17B681B6BC0
:1028C000012B19D17B681B680C33FB60FB6853E854
:1028D000003FBB60BB6823F010037B647B681B6810
:1028E0000C337A6CBA617B617969BA6941E800237B
:1028F0003B613B69002BE5D17B68202283F84220B5
:102900007B6800221A6300BF5437BD465DF8047B24
:10291000704700002DE9B04FC0B000AFC7F8F40019
:10292000D7F8F4301B681B6923F44050D7F8F43013
:10293000D968D7F8F4301A6840EA01031361D7F870
:10294000F4309A68D7F8F4301B691A43D7F8F4309A
:102950005B691A43D7F8F430DB691343C7F8F830E2
:10296000D7F8F4301B68DB6823F4164121F00C0122
:10297000D7F8F4301A68D7F8F8300B43D360D7F89B
:10298000F4301B685B6923F44070D7F8F430996920
:10299000D7F8F4301A6840EA01035361D7F8F430ED
:1029A0001A688F4B9A4205D0D7F8F4301A688D4BCD
:1029B0009A4204D1FFF778F9C7F8FC0003E0FFF76B
:1029C0005FF9C7F8FC00D7F8F430DB69B3F5004FC6
:1029D00040F00C81D7F8FC300022C7F8E830C7F887
:1029E000EC20D7E93A4522462B469118B9655B4160
:1029F000FB65D7E91623214612EB0108294643EB74
:102A000001094FF000024FF000034FEAC90343EA07
:102A100058734FEAC80290469946234618EB0303C1
:102A2000C7F8E0302B4649EB0303C7F8E430D7F88A
:102A3000F4305B680022C7F8D830C7F8DC20D7E94B
:102A400036120B46DB183B65134642EB03037B65EE
:102A5000D7E91423D7E93801FDF75EFD02460B469E
:102A6000614BA3FB02235B091C01D7F8FC30002259
:102A7000C7F8D030C7F8D420D7E9348942464B464E
:102A80009118B9645B41FB64D7E91223414612EB0C
:102A9000010A494643EB010B4FF000024FF00003DF
:102AA0004FEACB0343EA5A734FEACA0292469B4667
:102AB00043461AEB0303C7F8C8304B464BEB0303FE
:102AC000C7F8CC30D7F8F4305B680022C7F8C030C4
:102AD000C7F8C420D7E930120B46DB183B64134615
:102AE00042EB03037B64D7E91023D7E93201FDF7FA
:102AF00013FD02460B4611463B4BA3FB01235B092A
:102B0000642202FB03F3CB1ADB0003F13202364BE3
:102B1000A3FB02235B095B0003F4F8731C44D7F8A2
:102B2000FC300022C7F8B830C7F8BC20D7E92E899E
:102B300042464B469118B9635B41FB63D7E90E23CC
:102B400041465118396349464B417B634FF00002BF
:102B50004FF00003D7E90CAB5946CB00514643EA8E
:102B600051735146CA0010461946034642469B1807
:102B7000C7F8B0304B460A4642EB0303C7F8B430FF
:102B8000D7F8F4305B680022C7F8A830C7F8AC204B
:102B9000D7E92A120B46DB18BB62134642EB03034C
:102BA000FB62D7E90A23D7E92C01FDF7B5FC024601
:102BB0000B460D4BA3FB02135B09642101FB03F3DE
:102BC000D31ADB003233084AA2FB03235B0903F06C
:102BD0000702D7F8F4301B6822449A6006E100BF70
:102BE00000100140001401401F85EB51D7F8FC3064
:102BF0000022C7F8A030C7F8A420D7E928894246A8
:102C00004B46911839625B417B62D7E90823414604
:102C10005418494643EB01054FF000024FF0000302
:102C2000EB0043EA5473E20014461D464346E318A2
:102C3000C7F898304B4645EB0303C7F89C30D7F8EC
:102C4000F4305B680022C7F89030C7F894204FF04A
:102C500000024FF00003D7E9244529468B002146A6
:102C600043EA917321468A00D7E92601FDF754FC17
:102C700002460B46604BA3FB02235B091C01D7F8FD
:102C8000FC300022C7F88830C7F88C20D7E92289A9
:102C900042464B469118B9615B41FB61D7E9062377
:102CA00041465118396149464B417B614FF0000262
:102CB0004FF00003D7E904AB5946CB00514643EA35
:102CC00051735146CA0010461946034642469B18A6
:102CD000C7F880304B460A4642EB0303C7F88430FE
:102CE000D7F8F4305B680022BB67FA674FF0000248
:102CF0004FF00003D7E91E8949468B00414643EA5D
:102D0000917341468A00D7E92001FDF705FC024690
:102D10000B461146384BA3FB01235B09642202FBDF
:102D200003F3CB1A1B013233334AA2FB03235B09A3
:102D300003F0F0031C44D7F8FC3000223B677A67AD
:102D4000D7E91C8942464B469118B9605B41FB604C
:102D5000D7E9022341465118396049464B417B600F
:102D60004FF000024FF00003D7E900AB5946CB000B
:102D7000514643EA51735146CA001046194603466C
:102D800042469B18BB664B460A4642EB0303FB6672
:102D9000D7F8F4305B6800223B667A664FF0000299
:102DA0004FF00003D7E9188949468B00414643EAB2
:102DB000917341468A00D7E91A01FDF7ADFB02463F
:102DC0000B460D4BA3FB02135B09642101FB03F3CC
:102DD000D31A1B013233084AA2FB03235B0903F019
:102DE0000F02D7F8F4301B6822449A6000BF07F541
:102DF0008077BD46BDE8B08F1F85EB5180B582B0AE
:102E000000AF78607B68002B01D1012341E07B6833
:102E100093F83D30DBB2002B06D17B68002283F8AB
:102E20003C20786800F039F87B68022283F83D2066
:102E30007B681A687B6804331946104600F080FCF2
:102E40007B68012283F846207B68012283F83E20BC
:102E50007B68012283F83F207B68012283F84020B1
:102E60007B68012283F841207B68012283F842209D
:102E70007B68012283F843207B68012283F8442089
:102E80007B68012283F845207B68012283F83D207E
:102E9000002318460837BD4680BD80B483B000AF1C
:102EA000786000BF0C37BD465DF8047B70470000BA
:102EB00080B485B000AF78607B6893F83D30DBB2BA
:102EC000012B01D0012344E07B68022283F83D20DE
:102ED0007B681B68DA687B681B6842F00102DA6075
:102EE0007B681B681E4A934218D07B681B68B3F14D
:102EF000804F13D07B681B681A4A93420ED07B68C0
:102F00001B68194A934209D07B681B68174A934291
:102F100004D07B681B68164A934211D17B681B68FA
:102F20009B6803F00703FB60FB68062B10D07B68EF
:102F30001B681A687B681B6842F001021A6007E090
:102F40007B681B681A687B681B6842F001021A6084
:102F5000002318461437BD465DF8047B704700BF58
:102F6000000001400004004000080040000C004048
:102F70000040014080B582B000AF78607B68002BD4
:102F800001D1012341E07B6893F83D30DBB2002B97
:102F900006D17B68002283F83C20786800F039F87D
:102FA0007B68022283F83D207B681A687B680433C3
:102FB0001946104600F0C4FB7B68012283F84620C6
:102FC0007B68012283F83E207B68012283F83F2042
:102FD0007B68012283F840207B68012283F841202E
:102FE0007B68012283F842207B68012283F843201A
:102FF0007B68012283F844207B68012283F8452006
:103000007B68012283F83D20002318460837BD461F
:1030100080BD80B483B000AF786000BF0C37BD4680
:103020005DF8047B7047000080B584B000AF786025
:1030300039600023FB733B68002B04D17B6893F855
:103040003E30DBB213E03B68042B04D17B6893F87D
:103050003F30DBB20BE03B68082B04D17B6893F870
:103060004030DBB203E07B6893F84130DBB2BB73E6
:103070003B68002B04D17B6893F84230DBB213E04D
:103080003B68042B04D17B6893F84330DBB20BE040
:103090003B68082B04D17B6893F84430DBB203E033
:1030A0007B6893F84530DBB27B73BB7B012B02D18D
:1030B0007B7B012B01D00123C2E03B68002B04D1B4
:1030C0007B68022283F83E2013E03B68042B04D186
:1030D0007B68022283F83F200BE03B68082B04D179
:1030E0007B68022283F8402003E07B68022283F899
:1030F00041203B68002B04D17B68022283F84220E8
:1031000013E03B68042B04D17B68022283F8432040
:103110000BE03B68082B04D17B68022283F8442033
:1031200003E07B68022283F845203B680C2B41D8E2
:1031300001A252F823F000BF6D310008B53100083C
:10314000B5310008B53100087F310008B5310008FD
:10315000B5310008B531000891310008B5310008DB
:10316000B5310008B5310008A33100087B681B6841
:10317000DA687B681B6842F00202DA601DE07B6857
:103180001B68DA687B681B6842F00402DA6014E0AE
:103190007B681B68DA687B681B6842F00802DA60AB
:1031A0000BE07B681B68DA687B681B6842F01002E2
:1031B000DA6002E00123FB7300BFFB7B002B3ED1F2
:1031C0007B681B6801223968184600F0F7FC7B68B1
:1031D0001B681D4A934218D07B681B68B3F1804F6F
:1031E00013D07B681B68194A93420ED07B681B681A
:1031F000174A934209D07B681B68164A934204D051
:103200007B681B68144A934211D17B681B689B68DA
:1032100003F00703BB60BB68062B10D07B681B68FC
:103220001A687B681B6842F001021A6007E07B683D
:103230001B681A687B681B6842F001021A60FB7BFE
:1032400018461037BD4680BD000001400004004014
:1032500000080040000C00400040014080B584B0F0
:1032600000AF78607B681B68DB68FB607B681B686D
:103270001B69BB60BB6803F00203002B20D0FB6816
:1032800003F00203002B1BD07B681B686FF0020267
:103290001A617B6801221A777B681B689B6903F0BF
:1032A0000303002B03D0786800F04CFD05E078683C
:1032B00000F027FA786800F02EFA7B6800221A776F
:1032C000BB6803F00403002B20D0FB6803F0040369
:1032D000002B1BD07B681B686FF004021A617B68AF
:1032E00002221A777B681B689B6903F44073002BEA
:1032F00003D0786800F026FD05E0786800F001FA58
:10330000786800F008FA7B6800221A77BB6803F03F
:103310000803002B20D0FB6803F00803002B1BD010
:103320007B681B686FF008021A617B6804221A77B9
:103330007B681B68DB6903F00303002B03D078680C
:1033400000F000FD05E0786800F0DBF9786800F037
:10335000E2F97B6800221A77BB6803F01003002BA8
:1033600020D0FB6803F01003002B1BD07B681B6888
:103370006FF010021A617B6808221A777B681B685D
:10338000DB6903F44073002B03D0786800F0DAFCAB
:1033900005E0786800F0B5F9786800F0BCF97B6862
:1033A00000221A77BB6803F00103002B0CD0FB68E6
:1033B00003F00103002B07D07B681B686FF001024C
:1033C0001A61786800F0CCFCBB6803F08003002B26
:1033D0000CD0FB6803F08003002B07D07B681B68D0
:1033E0006FF080021A61786800F086FCBB6803F019
:1033F0004003002B0CD0FB6803F04003002B07D0E8
:103400007B681B686FF040021A61786800F08DF9E4
:10341000BB6803F02003002B0CD0FB6803F02003F3
:10342000002B07D07B681B686FF020021A61786858
:1034300000F058FC00BF1037BD4680BD80B586B097
:1034400000AFF860B9607A600023FB75FB6893F801
:103450003C30012B01D1022388E0FB68012283F874
:103460003C207B68002B1BD1FB681868BB6819687F
:10347000BB685A68BB68DB6800F0E8F9FB681B684A
:103480009A69FB681B6822F00C029A61FB681B6852
:103490009969BB689A68FB681B680A439A6160E097
:1034A0007B68042B1CD1FB681868BB681968BB6873
:1034B0005A68BB68DB6800F060FAFB681B689A69B1
:1034C000FB681B6822F440629A61FB681B6899697B
:1034D000BB689B681A02FB681B680A439A6140E05C
:1034E0007B68082B1BD1FB681868BB681968BB6830
:1034F0005A68BB68DB6800F0ADFAFB681B68DA69E4
:10350000FB681B6822F00C02DA61FB681B68D96952
:10351000BB689A68FB681B680A43DA6121E07B6834
:103520000C2B1CD1FB681868BB681968BB685A680B
:10353000BB68DB6800F0CAFAFB681B68DA69FB68E5
:103540001B6822F44062DA61FB681B68D969BB68BA
:103550009B681A02FB681B680A43DA6101E00123D9
:10356000FB75FB68002283F83C20FB7D184618376A
:10357000BD4680BD80B584B000AF7860396000235F
:10358000FB737B6893F83C30012B01D10223B4E03C
:103590007B68012283F83C207B68022283F83D206F
:1035A0007B681B689B68BB60BB6823F07703BB60CC
:1035B000BB6823F47F43BB607B681B68BA689A6072
:1035C0003B681B68B3F5005F3ED0B3F5005F00F2C7
:1035D0008780B3F5805F00F08680B3F5805F7FD889
:1035E000702B1AD0702B7BD8602B50D0602B77D8E3
:1035F000502B3CD0502B73D8402B58D0402B6FD839
:10360000302B64D0302B6BD8202B60D0202B67D888
:10361000002B5CD0102B5AD062E07B6818683B68A6
:1036200099683B685A683B68DB6800F0A7FA7B68DA
:103630001B689B68BB60BB6843F07703BB607B681B
:103640001B68BA689A604FE07B6818683B689968A5
:103650003B685A683B68DB6800F090FA7B681B683F
:103660009A687B681B6842F480429A603CE07B6801
:1036700018683B6859683B68DB681A4600F04EF9E9
:103680007B681B685021184600F05DFA2CE07B68CF
:1036900018683B6859683B68DB681A4600F0AAF96D
:1036A0007B681B686021184600F04DFA1CE07B68BF
:1036B00018683B6859683B68DB681A4600F02EF9C9
:1036C0007B681B684021184600F03DFA0CE07B68DF
:1036D0001A683B681B681946104600F034FA03E08C
:1036E0000123FB7300E000BF7B68012283F83D20CB
:1036F0007B68002283F83C20FB7B18461037BD46D0
:1037000080BD80B483B000AF786000BF0C37BD4689
:103710005DF8047B704780B483B000AF786000BF71
:103720000C37BD465DF8047B704780B483B000AFB2
:10373000786000BF0C37BD465DF8047B7047000021
:1037400080B485B000AF786039607B681B68FB602F
:103750007B68374A93420FD07B68B3F1804F0BD020
:103760007B68344A934207D07B68334A934203D044
:103770007B68324A934208D1FB6823F07003FB60F8
:103780003B685B68FA681343FB607B68284A934296
:103790001BD07B68B3F1804F17D07B68254A9342DA
:1037A00013D07B68244A93420FD07B68234A93420C
:1037B0000BD07B68224A934207D07B68214A934210
:1037C00003D07B68204A934208D1FB6823F44073FE
:1037D000FB603B68DB68FA681343FB60FB6823F01F
:1037E00080023B685B691343FB603B689A687B68B7
:1037F000DA623B681A687B689A627B680C4A93427B
:1038000003D13B681A697B681A637B681B6843F0C5
:1038100004027B681A607B6801225A617B68FA683F
:103820001A6000BF1437BD465DF8047B704700BFC7
:10383000000001400004004000080040000C00406F
:1038400000400140004401400048014080B487B07E
:1038500000AFF860B9607A603B60FB681B6A3B614F
:10386000FB681B6A23F00102FB681A62FB689B6914
:103870007B61FB68244A934213D0FB68B3F1804F0D
:103880000FD0FB68214A93420BD0FB68204A934239
:1038900007D0FB681F4A934203D0FB681E4A93423D
:1038A00001D1012300E00023002B08D07B6923F025
:1038B00003037B617A697B6813437B6103E07B6967
:1038C00043F001037B617B6923F0F0037B613B687C
:1038D0001B01DBB27A6913437B613B6923F00A0366
:1038E0003B61BB6803F00A033A6913433B61FB6821
:1038F0007A699A61FB683A691A6200BF1C37BD4653
:103900005DF8047B704700BF0000014000040040E8
:1039100000080040000C00400040014080B487B027
:1039200000AFF860B9607A60FB681B6A7B61FB6876
:103930001B6A23F00102FB681A62FB689B693B610A
:103940003B6923F0F0033B617B681B013A69134339
:103950003B617B6923F00A037B617A69BB6813438F
:103960007B61FB683A699A61FB687A691A6200BFF9
:103970001C37BD465DF8047B704780B487B000AF4C
:10398000F860B9607A603B60FB681B6A7B61FB682A
:103990001B6A23F01002FB681A62FB689B693B619B
:1039A0003B6923F440733B617B681B023A69134314
:1039B0003B613B6923F470433B613B681B039BB253
:1039C0003A6913433B617B6923F0A0037B61BB68C9
:1039D0001B0103F0A0037A6913437B61FB683A691A
:1039E0009A61FB687A691A6200BF1C37BD465DF8B0
:1039F000047B704780B487B000AFF860B9607A602C
:103A0000FB681B6A7B61FB681B6A23F01002FB6882
:103A10001A62FB689B693B613B6923F470433B611D
:103A20007B681B033A6913433B617B6923F0A00366
:103A30007B61BB681B017A6913437B61FB683A6950
:103A40009A61FB687A691A6200BF1C37BD465DF84F
:103A5000047B704780B487B000AFF860B9607A60CB
:103A60003B60FB681B6A7B61FB681B6A23F4807206
:103A7000FB681A62FB68DB693B613B6923F0030367
:103A80003B613A697B6813433B613B6923F0F00378
:103A90003B613B681B01DBB23A6913433B617B69C5
:103AA00023F420637B61BB681B0203F420637A6903
:103AB00013437B61FB683A69DA61FB687A691A62D1
:103AC00000BF1C37BD465DF8047B704780B487B0EB
:103AD00000AFF860B9607A603B60FB681B6A7B618D
:103AE000FB681B6A23F48052FB681A62FB68DB697F
:103AF0003B613B6923F440733B617B681B023A697D
:103B000013433B613B6923F470433B613B681B03F8
:103B10009BB23A6913433B617B6923F420437B6189
:103B2000BB681B0303F420437A6913437B61FB6882
:103B30003A69DA61FB687A691A6200BF1C37BD46D0
:103B40005DF8047B704780B485B000AF7860396061
:103B50007B689B68FB60FB6823F07003FB603A683E
:103B6000FB68134343F00703FB607B68FA689A60C5
:103B700000BF1437BD465DF8047B704780B487B042
:103B800000AFF860B9607A603B60FB689B687B615E
:103B90007B6923F47F437B613B681A027B681A438D
:103BA000BB6813437A6913437B61FB687A699A6047
:103BB00000BF1C37BD465DF8047B704780B487B0FA
:103BC00000AFF860B9607A60BB6803F01F030122A0
:103BD00002FA03F37B61FB681A6A7B69DB431A40D4
:103BE000FB681A62FB681A6ABB6803F01F037968F6
:103BF00001FA03F31A43FB681A6200BF1C37BD4683
:103C00005DF8047B7047000080B485B000AF786039
:103C100039607B6893F83C30012B01D1022350E0DE
:103C20007B68012283F83C207B68022283F83D20D8
:103C30007B681B685B68FB607B681B689B68BB607C
:103C4000FB6823F07003FB603B681B68FA68134352
:103C5000FB607B681B68FA685A607B681B681C4ABB
:103C6000934218D07B681B68B3F1804F13D07B68F8
:103C70001B68184A93420ED07B681B68164A934211
:103C800009D07B681B68154A934204D07B681B6887
:103C9000134A93420CD1BB6823F08003BB603B689E
:103CA0005B68BA681343BB607B681B68BA689A603C
:103CB0007B68012283F83D207B68002283F83C204A
:103CC000002318461437BD465DF8047B704700BFDB
:103CD000000001400004004000080040000C0040CB
:103CE0000040014080B483B000AF786000BF0C3763
:103CF000BD465DF8047B704780B483B000AF786048
:103D000000BF0C37BD465DF8047B704782B00021D0
:103D100000910B4B1A6B42F001021A631A6B02F00E
:103D200001020092009A01911A6B42F002021A639A
:103D30001B6B03F002030193019B02B0704700BFAD
:103D40000038024008B50268034B9A4200D008BD13
:103D5000024800F0FDFBFAE70000014000020020ED
:103D60000268044B9A4200D07047034A138C013317
:103D70001384F9E7000001400002002072B6FEE75C
:103D800000B585B0002300930193029303931F486D
:103D90001F4A02604360836001220261037680F85B
:103DA0002030C3621B498162C3600321C16180F876
:103DB00030304261FCF754FFF8B90523009301232A
:103DC00001930423029369461048FDF70DF9B0B939
:103DD000062300930223019369460C48FDF704F97A
:103DE00078B9072300930323019369460748FDF739
:103DF000FBF840B905B05DF804FBFFF7BFFFFFF724
:103E0000BDFFFFF7BBFFFFF7B9FF00BF08030020AE
:103E1000002001400100000F08B50A480A4B03606A
:103E20000A4B436000238360C3604FF48042026109
:103E300043618361C3610362FEF790FA00B908BD74
:103E4000FFF79CFFB402002000540040A086010050
:103E500008B50A480A4B03604FF416534360002329
:103E60008360C36003610C2242618361C361FEF71A
:103E7000B9FB00B908BDFFF781FF00BF6C0200204D
:103E800000100140F0B593B000240E940F941094EC
:103E900011940C940D94089409940A940B9403AD16
:103EA000039404940594069407940094414B5A6C2F
:103EB00042F001025A645A6C02F001020092009A28
:103EC00001941A6B42F001021A631A6B02F00102AC
:103ED0000192019A02941A6B42F002021A631B6B60
:103EE00003F002030293029B4FF4807303930223B7
:103EF00004930127079729462F48FDF7E9FE2F4E27
:103F000022464FF480513046FEF766F84FF4805356
:103F1000039304970594069429463046FDF7D8FE8E
:103F20002748284B03600F23436084604FF6FF73DC
:103F3000C360046144618461FEF760FF80BB4FF49D
:103F400080530E930EA91E48FFF714FB50BB1C486C
:103F5000FFF710F840BB00230C930D930CA91848F1
:103F6000FFF752FE10BB00220892012309930A9228
:103F70000B9208A91248FFF761FAC8B9002211464E
:103F80001B20FEF71EF91B20FEF737F90022114611
:103F90001920FEF716F91920FEF72FF913B0F0BD1E
:103FA000FFF7ECFEFFF7EAFEFFF7E8FEFFF7E6FE9D
:103FB000FFF7E4FE00380240000002400004024027
:103FC000240200200000014010B594B008AC30225B
:103FD0000021204601F076FA002303930493059311
:103FE000069307930193194A116C41F080511164B3
:103FF000126C02F080520192019A029314490A68ED
:1040000022F4404242F400420A600A6802F440424C
:104010000292029A0222089201220B9210220C9222
:104020000E932046FDF7FEF960B90F23039300219C
:10403000049105910691079103A8FDF76BFC18B94F
:1040400014B010BDFFF79AFEFFF798FE003802404B
:104050000070004080B5A4B0FEF7EAF8FFF7B4FFA7
:10406000FFF754FEFFF78CFEFFF7D6FEFFF7F0FEDA
:1040700000F0F4F9FFF706FF2C482D4B03604FF4D6
:10408000805383802B4B83600023838100F004FAEC
:10409000294C22460321294800F0C7F9238807EE5E
:1040A000903AF8EE677A9FED267A67EE877ADFED31
:1040B000256A87EEA66A244D85ED006A638807EEBF
:1040C000903AF8EE677A67EE877A87EEA67AF1EE95
:1040D000007A67EE277ADFF88480C8ED007A134C07
:1040E000204600F024FAA469184BA3FB0434E4082A
:1040F000174B1C602868FCF7B7F906460F4604AD5D
:104100000294D8F80000FCF7AFF9CDE9000132467F
:104110003B461049284601F06FF929460E4800F049
:10412000C9FA4FF49670FEF7F5F8B1E700020020E7
:104130000004024024020020540300200803002051
:104140003333534000F07F45FC010020CDCCCCCC74
:10415000F4010020C87600086C020020F80100205D
:10416000FEE7FEE7FEE7FEE7FEE7704770477047B1
:1041700008B5FEF7AFF808BD08B50248FFF76EF8BE
:1041800008BD00BF2402002008B50248FFF766F80A
:1041900008BD00BF2402002082B0002100910B4B1B
:1041A0005A6C42F480425A645A6C02F48042009283
:1041B000009A01911A6C42F080521A641B6C03F051
:1041C00080530193019B02B0704700BF003802404A
:1041D00000B589B0002303930493059306930793D6
:1041E000026803F1804303F590339A4202D009B08C
:1041F0005DF804FB0021019103F58C335A6C42F405
:1042000080725A645A6C02F480720192019A02918F
:104210001A6B42F001021A631B6B03F00103029355
:10422000029BE02303930323049303A90148FDF7B2
:104230004FFDDCE70000024030B589B00023039356
:1042400004930593069307930268144B9A4201D096
:1042500009B030BD00250195114C236B43F00203DA
:104260002363236B03F002030193019BC023039399
:1042700012230493032306930423079303A90948F5
:10428000FDF726FD0295236C43F400132364236C91
:1042900003F400130293029BDAE700BF00540040CE
:1042A000003802400004024000B589B000230393A7
:1042B0000493059306930793026803F1804303F583
:1042C00088339A4202D009B05DF804FB00210191C5
:1042D00003F594335A6C42F010025A645A6C02F09F
:1042E00010020192019A02911A6B42F001021A63C4
:1042F0001B6B03F001030293029B4FF4C063039313
:1043000002230493032306930723079303A9024878
:10431000FDF7DEFCD7E700BF0000024010B5034602
:104320000C4A0D490D48006840B10C480068034430
:10433000521A934206D8094A136010BD0748084C28
:104340000460F2E701F010F90C2303604FF0FF3036
:10435000F3E700BF0000012000040000500300202C
:10436000B00400200120704708B501F0FDF81623C5
:1043700003604FF0FF3008BD08B54FF0FF31FFF785
:10438000F3FFFEE770B50C461646002506E0AFF3D6
:104390000080214601F8010B01350C46B542F6DBE1
:1043A000304670BD70B50C461646002504E014F882
:1043B000010BAFF300800135B542F8DB304670BD2C
:1043C0004FF0FF3070474FF400534B6000207047B0
:1043D0000120704700207047DFF834D0FCF72EFC36
:1043E0000C480D490D4A002302E0D458C450043350
:1043F000C4188C42F9D30A4A0A4C002301E0136026
:104400000432A242FBD301F0B5F8FFF723FE704758
:104410000000012000000020D4010020847A000860
:10442000D4010020AC040020FEE7F8B505460E4696
:104430001746FCF759FC00240AE064212846FCF7E3
:104440003AFD2846FCF7C2FD27F814000134E4B217
:10445000B442F2D32846FCF7FBFCF8BD08B50B4A82
:10446000D2F8FC3043F08073C2F8FC30A2F55D4214
:10447000136843F001031360FDF732FB044BA3FB09
:104480000030800C034B186008BD00BF00ED00E059
:1044900083DE1B435C03002010B5044600228188A4
:1044A0000068FDF799FDA389ABB9A3681A68136A80
:1044B00023F00A031362A38933BBA3681B681A6A3B
:1044C0001A620023A373A189A068FEF7ADFDA0685E
:1044D000FEF7EEFC10BD042B08D0082B0DD0A3680E
:1044E0001A68136A23F420431362E4E7A3681A6886
:1044F000136A23F0A0031362DDE7A3681A68136A46
:1045000023F420631362D6E7042B06D0082B09D0CE
:10451000A3681B681A6A1A62D3E7A3681B681A6A41
:104520001A62CEE7A3681B681A6A1A62C9E710B557
:104530000446012281880068FDF74EFD0120FDF749
:10454000E9FE0022A1882068FDF746FD10BD0000AD
:10455000837B13B1012B47D0704783681A68526A76
:104560000261012282730022028482896AB91A6878
:10457000136A23F00A0313628389E3B983681A6814
:10458000136A43F0020313627047042A07D0082A13
:104590000BD01A68136A23F420431362ECE71A68FD
:1045A000136A23F0A0031362E6E71A68136A23F480
:1045B00020631362E0E7042B08D0082B0DD083683A
:1045C0001A68136A43F400531362704783681A68C9
:1045D000136A43F020031362704783681A68136AF2
:1045E00043F400731362704710B481680B685B6A10
:1045F000028CCC6804FB023343610022827302699F
:104600009B1A03EB0313224AA2FB03C252098261E5
:10461000204A934201D9C36983618369C361838955
:104620006BB90A68136A23F00A0313628389E3B93A
:1046300083681B681A6A1A625DF8044B7047042B82
:1046400007D0082B0BD00A68136A23F420431362A7
:10465000ECE70A68136A23F0A0031362E6E70A682E
:10466000136A23F420631362E0E7042B06D0082BBF
:1046700009D083681B681A6A1A62DDE783681B68C1
:104680001A6A1A62D8E783681B681A6A1A62D3E743
:104690001F85EB5183A1070000B583B08DF807108B
:1046A0004FF6FF7301220DF10701FDF7EBFF03B099
:1046B0005DF804FB38B505460C4603E00134284696
:1046C000FFF7EAFF21780029F8D138BD2DE9F0473E
:1046D000089D0F4604468C46002B48D18A42164658
:1046E00061D9B2FA82F34BB1C3F1200201FA03FCA3
:1046F00020FA02F29E4042EA0C0C9C404FEA164E11
:10470000B7B2BCFBFEF1220C0EFB11CC42EA0C420C
:1047100001FB07F0904209D9B21801F1FF3C80F08B
:10472000EE80904240F2EB8002393244121AA4B279
:10473000B2FBFEF00EFB102244EA024400FB07F736
:10474000A74209D9341900F1FF3280F0DA80A7427C
:1047500040F2D7803444023840EA0140E41B002193
:104760001DB1DC400023C5E90043BDE8F0878B4262
:1047700006D90DB1C5E9000100210846BDE8F08762
:10478000B3FA83F1002948D1BB4202D3824200F23E
:104790000781841A67EB030201209446002DE4D0C0
:1047A000C5E9004CE1E7002A00F09280B2FA82F3FA
:1047B000002B40F0A8808A1A4FEA164E1FFA86FC9A
:1047C0000121200CB2FBFEF70EFB172240EA024249
:1047D0000CFB07F0904207D9B21807F1FF3802D25C
:1047E000904200F2E2804746121AA4B2B2FBFEF0F9
:1047F0000EFB102244EA02440CFB00FCA44507D93E
:10480000341900F1FF3202D2A44500F2CB801046E9
:10481000A4EB0C0440EA0740A2E7C1F120068B405C
:1048200022FA06FC4CEA030C07FA01F420FA06F31C
:10483000F7404FEA1C49234300FA01F81FFA8CFEA7
:10484000B7FBF9F01C0C09FB107744EA074400FBA6
:104850000EF7A74202FA01F20AD91CEB040400F198
:10486000FF3A80F09B80A74240F29880023864446F
:10487000E41B9FB2B4FBF9F309FB134447EA044479
:1048800003FB0EFEA64509D91CEB040403F1FF3718
:1048900080F08280A6457FD9023B644443EA004011
:1048A000A4EB0E04A0FB02E7BC427346B94663D3F7
:1048B00060D05DB1B8EB030264EB090404FA06F6BC
:1048C00022FA01F31E43CC40C5E9006400214CE705
:1048D0006208480842EAC1710B0C43EA00438AB2FD
:1048E00042EA0342B3FBF6F1E407B4463746B64664
:1048F0001F23B0FBF6F0D21B41EA004161E761469D
:1049000014E7104628E7C3F1200120FA01F29E4087
:1049100027FA01F19F403A434FEA164E1FFA86FCF0
:10492000B1FBFEF70EFB1710110C41EA004107FB2B
:104930000CF8884504FA03F43AD9711807F1FF30EE
:1049400001D288451FD8A1EB0801B1FBFEF808FB96
:104950000CF70EFB181192B242EA0142BA422FD272
:10496000B21808F1FF31C6D2BA42C4D2A8F102018E
:104970003244C0E7F0459CD2BEEB020367EB0C0764
:104980000138B94695E7A6EB08084144B81EB1FBCB
:10499000FEF808FB0CF7DCE73B467FE7504667E78D
:1049A0000846FBE63444023832E7023F32441BE754
:1049B000A1EB08013846B1FBFEF808FB0CF7C8E78D
:1049C000414698E72DE9FF4757EC106B002F0C4646
:1049D00019463B46BBBF07F100431F4600232D236A
:1049E0000B700D9BDDF830A0914623F02008BCBF72
:1049F00032461646B8F1460F05D0B8F1450F00D142
:104A00000134022100E0032103AB019302AB0093C8
:104A100047EC106B5346224600F05EFEB8F1470F9C
:104A2000054619D119F0010F0ED000EB0409002240
:104A3000002330463946FCF74BF808B1CDF80C900E
:104A40003022039B4B451ED3039B0E9A5B1B2846CB
:104A5000136004B0BDE8F087B8F1460F00EB04091D
:104A6000E5D10378302B0AD10022002330463946A5
:104A7000FCF72EF818B9C4F10104CAF80040DAF8BE
:104A800000309944D3E7591C03911A70D9E7F7B560
:104A90000029BABF49422D232B23092902704370F4
:104AA00029DD0DF1070425460A272246B1FBF7F65A
:104AB00007FB1613303302F8013C0B46632B04F15D
:104AC000FF343146F1DC3031931E04F8011C411CE7
:104AD0001C46AB420AD30DF109039B1AA54238BF0D
:104AE0000023821C1344181A03B0F0BD13F8016BA5
:104AF00001F8016FEDE7302330318370C170031D81
:104B0000F1E700002DE9F04F8DB00C46DDF858803C
:104B100016461F46054600F0DDFC0368069318465E
:104B2000FBF766FD00230A93D8F8003094F818A02C
:104B3000D4F800B00790073323F00703B3EC027BEF
:104B40008DED047BC8F80030DDE9048323F00049D3
:104B500084ED127B9C4B4FF0FF3240464946FBF7F9
:104B6000E9FF70BB984B4FF0FF3240464946FBF7D8
:104B7000C3FF30BBDDE9040100220023FBF7B2FFD5
:104B800010B12D2384F84330904A914BBAF1470F6E
:104B90008CBF90469846032323612BF004032360C7
:104BA0004FF00009009733460BAA2146284600F033
:104BB000D1F9013040F08C804FF0FF300DB0BDE8EE
:104BC000F08FDDE9042310461946FBF7B3FF40B12F
:104BD000059B804A002BBCBF2D2384F843307E4BBD
:104BE000D4E763685A1C0AF0DF093BD106236360EF
:104BF0004BF480620023226003930AABCDE901A34A
:104C000009AB009361689DED040B0DF12303284669
:104C1000FFF7D8FEB9F1470F0999804629D1C81C82
:104C200002DB63688B4241DAAAF1020A5FFA8AFA70
:104C30000139524604F150000991FFF728FF0A9A02
:104C40001318012A8146236102DC2268D20701D5AC
:104C5000013323619DF82330002BA3D02D2384F84A
:104C600043309FE7B9F1470FC2D1002BC0D10123D8
:104C7000BDE7BAF1650FDBD9BAF1660F18D100298B
:104C800063680BDD216113B92268D00702D50133B7
:104C90000B442361A1654FF00009DBE713B92268DB
:104CA000D20701D50233F4E70123F2E74FF0670A98
:104CB0000A9B8B4205DC23682161D807EAD54B1C8F
:104CC000E7E70029D4BFC1F1020201221344E0E763
:104CD00023685A0507D42369424631462846B84717
:104CE00001302BD168E7BAF1650F40F2DD80D4E9DD
:104CF000120100220023FBF7EBFE002833D0374AD5
:104D0000012331462846B84701303FF455AFDDE96D
:104D10000938434502DB2368D8070FD5DDE90623B0
:104D200031462846B84701303FF446AF4FF00009FE
:104D300008F1FF3804F11A0AC84509DC23689B070B
:104D400000F10381E0680B9B9842B8BF184635E735
:104D50000123524631462846B84701303FF42CAF74
:104D600009F10109E8E7099B002B39DC1B4A012303
:104D700031462846B84701303FF41EAFDDE9093916
:104D800059EA030302D12368D907D7D5DDE9062301
:104D900031462846B84701303FF40EAF4FF0000AC5
:104DA00004F11A0B099B5B42534501DC4B4693E728
:104DB00001235A4631462846B84701303FF4FCAE3D
:104DC0000AF1010AEEE700BFFFFFEF7F047700085A
:104DD000007700080C7700080877000810770008B3
:104DE000A36DDDF828A05345A8BF5346002B994674
:104DF00036DC4FF0000B29EAE97904F11A02A36DC1
:104E00000493A3EB09035B4531DC099B9A453ADC2B
:104E10002368DA0737D4099BAAEB0309049BAAEBA2
:104E200003039945A8BF9946B9F1000F33DC4FF051
:104E3000000829EAE97904F11A0B099BAAEB03039C
:104E4000A3EB090343457FF779AF01235A46314667
:104E50002846B84701303FF4AFAE08F10108ECE74F
:104E6000424631462846B8470130C2D1A4E6012364
:104E7000314628460492B84701303FF49DAE049A6B
:104E80000BF1010BBBE7DDE9062331462846B847A5
:104E90000130C0D190E6049A4B4642443146284640
:104EA000B8470130C3D187E6DDF828A0BAF1010F79
:104EB00001DCDB0736D50123424631462846B84798
:104EC00001303FF479AEDDE9062331462846B84784
:104ED00001303FF471AED4E91201002200230AF13F
:104EE000FF3AFBF7F5FDC0B9534608F10102314620
:104EF0002846B84701300CD15EE601235A463146B8
:104F00002846B84701303FF457AE08F10108D045B4
:104F1000F3DB4B4604F15002DFE64FF0000804F1EA
:104F20001A0BF4E701234246E1E701234A463146E2
:104F30002846B84701303FF43FAE08F10108E36866
:104F40000B995B1A4345F0DCFCE64FF0000804F1D6
:104F50001909F4E72DE9F047164698468A680B6967
:104F6000DDF820909342B8BF1346336091F8432098
:104F700007460C460AB1013333602368990642BFE5
:104F8000336802333360256815F0060506D104F155
:104F9000190AE36832689B1AAB4226DC94F8433066
:104FA0002268003B18BF012392062BD404F1430270
:104FB00041463846C84701301ED02368226903F0B5
:104FC0000603042B02BFE5683368ED1AA3680CBF23
:104FD00025EAE57500259342C4BF9B1AED1800260B
:104FE0001A34B5421AD1002008E001235246414646
:104FF0003846C847013003D14FF0FF30BDE8F08795
:105000000135C6E7E1185A1C302081F843002244DC
:1050100094F8451082F843100233C7E70123224673
:1050200041463846C8470130E6D00136D9E700008E
:105030002DE9FF470F7E0C9E782F914680460C4647
:105040009A4601F1430207D8622F0AD8002F00F0D8
:10505000D280582F00F0B78004F1420684F84270E5
:105060003AE0A7F16303152BF6D801A151F823F01C
:10507000C9500008DD500008595000085950000878
:105080005950000859500008DD50000859500008D8
:10509000595000085950000859500008DD510008C7
:1050A0000751000893510008595000085950000852
:1050B000FF510008595000080751000859500008D6
:1050C000595000089B51000833681A1D1B68326054
:1050D00004F1420684F8423001239DE033682068E1
:1050E000191D3160060601D51D6803E04506FBD594
:1050F000B3F90050002D03DA2D236D4284F84330BC
:1051000059480A2310E021683368080653F8045B05
:1051100002D4490648BFADB26F2F5348336059D10E
:105120000823002184F843106668A660002E05DB82
:1051300021682E4321F0040121604DD01646B5FBB5
:10514000F3F103FB1157C75D06F8017D2F46BB4203
:105150000D46F4D9082B0BD12368DF0708D5236946
:1051600061689942DEBF302306F8013C06F1FF3644
:10517000921B2261CDF800A04B4603AA214640466F
:10518000FFF7E8FE01304CD14FF0FF3004B0BDE82E
:10519000F087236843F0200323603448782784F89D
:1051A0004570236831681F0651F8045B02D45F061E
:1051B00048BFADB23160D90744BF43F0200323603C
:1051C0001DB11023ADE72848E9E7236823F0200349
:1051D0002360F6E70A23A4E71646BBE73368256891
:1051E0006169181D30602E061B6801D5196002E048
:1051F0006806FBD51980002323611646BAE7336899
:105200001A1D32601E68626800213046FBF7A0F963
:1052100008B1801B606063682361002384F8433019
:10522000A8E72369324649464046D0470130ABD013
:1052300023689B0713D4E068039B9842B8BF1846C5
:10524000A4E70123324649464046D04701309BD06F
:105250000135E36803995B1AAB42F2DCEBE700250A
:1052600004F11906F5E700BF12770008237700085C
:10527000002310B50446C0E90033C0E9043383605D
:1052800081814366C2818361194608225C3000F047
:1052900019F90D4B63620D4BA3620D4BE3620D4B8D
:1052A00023630D4B24629C4206D003F168029442B2
:1052B00002D0D0339C4205D104F15800BDE8104023
:1052C00000F07CB910BD00BF3D5400085F540008D9
:1052D00097540008BD54000860030020024A0349A7
:1052E000034800F06BB800BF0C000020656F000899
:1052F0001C00002041680C4B994210B5044601D0B7
:1053000001F030FEA168094B994202D0204601F01D
:1053100029FEE168064B994204D02046BDE81040C2
:1053200001F020BE10BD00BF60030020C8030020B4
:10533000300400200C4B0D4A0D4810B504211A60B2
:105340000022FFF795FF0A4B01221C46092103F1B9
:105350006800FFF78DFF04F1D0000222BDE8104085
:105360001221FFF785BF00BF98040020DD5200081E
:1053700060030020014800F022B900BFA104002012
:10538000014800F01DB900BFA104002010B504467B
:10539000FFF7F0FF236A1BB1BDE81040FFF7F0BF35
:1053A000044B2362044B1B68002BF5D1FFF7C2FFAF
:1053B000F2E700BFF5520008980400202DE9F843F9
:1053C0000746884614460026D4E90195B9F101093B
:1053D00005D52468002CF7D13046BDE8F883AB89A9
:1053E000012B07D9B5F90E30013303D029463846D1
:1053F000C04706436835E9E70EB410B59DB01FAB52
:10540000029006906FF000410A48079104910A4902
:1054100053F8042B0591002402A9006801931B9402
:1054200001F022FC029B1C701DB0BDE8104003B0CF
:10543000704700BF180000200802FFFF10B50C469F
:10544000B1F90E1000F06CF80028ABBF636DA389B2
:105450001B1823F48053ACBF6365A38110BD2DE9F5
:10546000F0411F468B89DB0505460C46164605D5DF
:10547000B1F90E100223002200F040F8A389B4F91C
:105480000E1023F48053A38132463B462846BDE8E4
:10549000F04100F057B810B50C46B1F90E1000F00D
:1054A0002DF8B4F90C30421C0BBF23F4805343F4A5
:1054B0008053A381A38118BF606510BDB1F90E10A0
:1054C00000F00CB802440346934200D1704703F841
:1054D000011BF9E7004870475801002038B5064D18
:1054E0000023044608462B60FEF76AFF431C02D1E6
:1054F0002B6803B1236038BD9C04002038B5074DEC
:1055000004460846114600222A601A46FEF762FF4A
:10551000431C02D12B6803B1236038BD9C040020DA
:1055200038B5074D04460846114600222A601A463F
:10553000FEF728FF431C02D12B6803B1236038BD5E
:105540009C04002038B5074D044608461146002249
:105550002A601A46FEF726FF431C02D12B6803B1CE
:10556000236038BD9C040020014B1868704700BFC1
:105570001800002070B50D4B0D4D5B1B9C100026D4
:10558000A64209D102F086F80A4D0B4B5B1B9C101A
:105590000026A64205D170BD55F8043B9847013658
:1055A000EEE755F8043B98470136F2E77C7A0008AD
:1055B0007C7A00087C7A0008807A0008704770477F
:1055C00070472DE9F74F03690C69A34207467EDB5C
:1055D000013C01F11408A30000F11405009305EB50
:1055E0008403019358F8243055F8242001339A425B
:1055F00008EB8409B2FBF3F62ED34FF0000AC44641
:10560000AE46D3465CF8043B98B206FB00A0020C01
:105610001B0C06FB0323DEF8002080B292B2121AA4
:105620005A44DEF800004FEA134A9BB2C3EB224310
:1056300003EB104392B242EA0342E1454EF8042BD9
:105640004FEA234BDED2009BEB582BB9019B043B66
:105650009D421A462FD33C61384601F099F9002843
:1056600025DB2946002058F8042BD1F800C01FFA8A
:1056700082FE1FFA8CF3A3EB0E030344120CC2EB61
:10568000234202EB1C429BB243EA0243C14541F86C
:10569000043B4FEA2240E6D255F8242005EB840370
:1056A00022B9043B9D421A460BD33C610136304679
:1056B00003B0BDE8F08F1268043B002ACBD1013C57
:1056C000C6E71268043B002AEFD1013CEAE700205C
:1056D000EEE70000000000002DE9F04F99B08DEDDD
:1056E0000E0B0C92C269229C0A9157EC106B8146FA
:1056F000139382B9102000F019FE0246C9F81C006D
:1057000020B9AD4BEF21AD4801F08CFC0023C0E97E
:1057100001330360C360116859B152684A600123C4
:1057200093408B60484600F0F5FED9F81C3000220B
:105730001A60B7F10008B5BF01230023236023607E
:105740009F4BBCBF28F00048CDF83C8033EA0803EB
:105750001AD1139AC8F3130842F20F7358EA0608D5
:10576000136000F06C85239B53B9964B21E0964B58
:1057700000930833239A1360009819B0BDE8F08FA6
:10578000904B00930333F5E79DED0E7B002251EC27
:10579000170B00238DED067BFBF79AF9824650B17B
:1057A000139A01231360239B13B1239A874B136031
:1057B000874B0093E0E79DED060B16AA17A9484614
:1057C00001F09AF95FEA1854169D019079D0079B71
:1057D000CDF850A0C3F31303DDE9060143F07F5376
:1057E00043F44013A4F2FF3419460022794BFAF730
:1057F000DBFC6BA3D3E90023FAF702FF6AA3D3E92A
:105800000023FAF7D3FC064620460F46FAF71AFEA5
:1058100067A3D3E90023FAF7F3FE02460B463046AE
:105820003946FAF7C3FC06460F46FBF799F9002202
:105830008046002330463946FBF754F948B14046CC
:10584000FAF700FE32463B46FBF742F908B908F189
:10585000FF38B8F1160F51D85F4B03EBC803D3E9FB
:105860000023DDE90601FBF73DF9002848D008F1E7
:10587000FF38002312932D1B6B1E089343BF002398
:10588000C5F1010708930027B8F1000F3ADB089B28
:10589000CDF8348043440893002309930A9B092BD5
:1058A00064D8052BC4BF043B0A930A9BA3F10203EF
:1058B000CCBF00240124032B64D8DFE803F0535548
:1058C000362B179C2C4404F23243202BC1BFC3F16A
:1058D000400308FA03F804F2124326FA03F3D6BF92
:1058E000C3F1200348EA030006FA03F0FAF79AFD31
:1058F0000122A1F1F873013C149275E70123B9E785
:105900001290B8E7C8F1000309930023A7EB08073A
:105910000D93C3E701230B930C9B43440593013381
:10592000012B0493B8BF012306E001230B930C9BCA
:10593000002B2ADDCDE90433D9F81C000021042214
:1059400002F114059D4201F1010623D94160484648
:1059500000F0A2FD0090002842D1204B024640F208
:10596000AF11D0E60023E1E70023D4E701240023B0
:10597000CDE90A344FF0FF33CDE90433002212237E
:105980000C92D9E701230B93F4E70123CDE904330B
:105990001A46F5E752003146D2E700BFAFF3008068
:1059A00061436F63A787D23FB3C8608B288AC63F25
:1059B000FB799F501344D33F417700085877000884
:1059C0000000F07F3D770008347700081177000869
:1059D000107700080000F83FA8780008B1770008A9
:1059E000D9F81C30009A1A60049B0E2B00F2A1809B
:1059F000002C00F09E80B8F1000F36DD9E4B08F0C1
:105A00000F0203EBC20318F4807FD3E900AB4FEA27
:105A1000281516D0994BDDE90601D3E90823FAF7DA
:105A200019FFCDE9020105F00F050324934E75B966
:105A3000DDE9020152465B46FAF70CFF82468B46CF
:105A40002DE09DED067B02248DED027BEEE7E9075C
:105A500008D550465946D6E90023FAF7D1FD01345E
:105A600082468B466D100836E1E700F0AD80C8F144
:105A70000005814B814E05F00F0203EBC203D3E911
:105A80000023DDE90601FAF7BBFD2D1182468B46A6
:105A900000230224002D40F08C80002BCED1129BDD
:105AA000002B00F09580764B002250465946FBF7BC
:105AB00019F8002800F08C80049B002B00F08880EF
:105AC000059B002B35DD08F1FF3302935046594604
:105AD0006C4B0022FAF794FD059E82468B460134FA
